:03000000022FC309
:102FC30078FFE4F6D8FD9000007F007E07E4F0A3CD
:0A2FD300DFFCDEFA758107023018FA
:0C2E690041010100410102004101000094
:06338500439108D29322DF
:06338B00439108C29322E9
:06339100439102D29122DB
:06339700439102C29122E5
:10336B00758E01438901758A80758CC1C28CD2A977
:03337B00D28C22CF
:03000B000231BD02
:1031BD00C0E0C083C082758A80758CC19001017496
:1031CD0001F0900105E004F07006900104E004F0B8
:1031DD0090011EE004F0700690011DE004F09001D6
:1031ED0008E004F07006900107E004F090011BE088
:1031FD0004F0700690011AE004F0D082D083D0E084
:01320D00328E
:0300330002333F56
:10333F00C0E0C083C08253ADDF9001027401F0D0B2
:06334F0082D083D0E032C1
:10316800EF4480F5ADEFC39408500F7401A8070829
:103178008002C333D8FCF5AB8011EF24F8FF74014B
:10318800A807088002C333D8FCF5AC43A84075AA49
:103198000643AD40900102E060FAE4900102F0AF0E
:1031A800AFEF75F010A4FFE5AEC4540F7C002FFFFD
:0431B800EC35F0FE04
:0131BC0022F0
:101FB900900100E0702F90011CF07F0E12316890A3
:101FC900011CE025E0240AF582E43401F583EEF0F2
:101FD900A3EFF090011CE004F0E0C3940840DB900B
:101FE90001007401F090011CE064086003022125DE
:101FF900F0FFE49000E0F0C374079FFE9000E0E07A
:10200900C39E400302209AE0FE25E0240CF582E4F9
:102019003401F583E0FCA3E0FDEE25E0240AF58216
:10202900E43401F583E0FAA3E0C39DEA9C5059909A
:1020390000E0E025E0240AF582E43401F583E0FDBF
:10204900A3E09000DECDF0A3EDF0EE25E0240CF541
:1020590082E43401F583E0FCA3E0FD9000E0E02593
:10206900E0240AF582E43401F583ECF0A3EDF09065
:1020790000DEE0FCA3E0FDEE25E0240CF582E4346B
:1020890001F583ECF0A3EDF09000E0E004F002200C
:10209900000FEF64086003021FFBE49000DEF0A369
:1020A900F0A37402F09000E0E0FFC39406502EEF15
:1020B90025E0240AF582E43401F583E0FEA3E07803
:1020C90002CEC313CE13D8F9FF9000DFE02FF090B2
:1020D90000DEE03EF09000E0E004F080C89000DE11
:1020E900E0FEA3E0FFD39400EE940840089000E1DD
:1020F9007402F08016D3EF9428EE940640089000FD
:10210900E17401F08005E49000E1F09000E1E0FF66
:1021190090011FE06F601EEFF0022AC57F0E123199
:102129006890011CE025E0240AF582E43401F58376
:05213900EEF0A3EFF041
:01213E00227E
:10330500900106E0640160147F0F123168AD07ACCF
:0C33150006900103E0FF12010012194EA7
:013321002289
:103252007F0D12316812305DC390011BE094F4902F
:10326200011AE09401402AA3E0240CF090011AE034
:1032720034FEF0900109E0B40114EF2440FFEE3473
:1032820001FE7C007D09120D597D05120DC012153B
:0132920090AB
:013293002218
:10213F0012335543CF1075EF01001233221233853E
:10214F0012339112336B12337ED2AFE4900103F04E
:10215F00900106F0900109F0FF122BCF900109E0DA
:10216F00FF122BCF900103E0FF1229A2900106E08E
:10217F00FF122CBD121FB9900101E070030222B5AE
:10218F00E4F01227079000DCEEF0A3EFF064014EAD
:10219F00701A900106E0700404F08005E4900106C7
:1021AF00F0900106E0FF122CBD0222549000DCE0FB
:1021BF00FEA3E0FF64024E700E20910612339102CF
:1021CF002254123397807EEF64044E6078EF6401DF
:1021DF007003EE64407036900103E0FF700404F06A
:1021EF008021EFB401089001037402F08015EFB461
:1021FF0002089001037403F08009EFB40305E49023
:10220F000103F0900103E0FF1229A280389000DC57
:10221F00E0B4401EA3E0B40219900109E070040479
:10222F00F08005E4900109F0900109E0FF122BCF37
:10223F0080139000DCE0B4400CA3E0B40407123329
:10224F008BC2AF80FEC3900105E094F4900104E0CF
:10225F009401400FA3E0240CF0900104E034FEF051
:10226F00121FB9C390011EE094F490011DE0940178
:10227F00400FA3E0240CF090011DE034FEF0123368
:10228F0005C3900108E09464900107E094004016A4
:10229F00A3E0249CF0900107E034FFF0900106E0EA
:0C22AF00B401031232521232BF02218629
:10335500E4F59AF59BF591F592F5A1F5A2F5B1F590
:06336500B2F5C1F5C22221
:102E750042013B000042013D000041013A00410191
:022E85003F000C
:07337E00539A1F439BE0225C
:10329400E4FD900140F0208707E04404F00D80181D
:1032A40020860A900140E04402F00D800B2085083E
:0A32B400900140E04401F00DAF0569
:0132BE0022ED
:10270700E4FBFA759C1C000000000012337E0000F9
:10271700000000123294A907900140E0FF70030205
:1027270027FF90013EE004F0700690013DE004F0C1
:10273700E96401707990013AE0648060717E00A3DA
:10274700E0FCA3E0FDB50726EEB50422C390013EE9
:10275700E094E890013DE09403500302285074038D
:10276700F0A374E8F090013A7440F0022850900109
:102777003AE0B48009E42DFBEC3480FA801CC39066
:10278700013EE094E890013DE094034009E42DFB0D
:10279700EC3440FA8004AA04AB05E490013DF0A3B1
:1027A700F090013AF0A3F0A3F090013F8037900139
:1027B70040E0FF90013BE0B40022A3E0B5071DC352
:1027C70090013EE094C890013DE09400407BE4F026
:1027D700A374C8F090013A7480F0806D90013FE0D7
:1027E700C3995065E9F0A3E0FF90013BE4F0A3EF44
:1027F700F0E4A3F0A3F0805190013AE0B480109088
:10280700013CE02400FB90013BE03480FA8027C3C1
:1028170090013EE094E890013DE094034010900160
:102827003CE02400FB90013BE03440FA8008900133
:102837003BE0FAA3E0FBE490013DF0A3F090013AFE
:10284700F0A3F0A3F090013FF0759CFCAE02AF033C
:01285700225E
:100F740000000000003C001E005000280073002DFB
:100F840000870035009A003800BA003F00DE0045B3
:100F940000F60055012000580144005E016500631D
:100FA400018F006A01AF007101B3007301D2007EAA
:100FB40001DD008201F30088020B0090021F0099FA
:100FC400022A009C024200A3024700A7025600AD79
:100FD400026800B7027F00E50299013002B4018182
:100FE40002D301E502DC01F902E5022502F0024820
:100FF40002FD027E030E02D103220351033B039B35
:10100400035D03A8038F03BB03E803E303F203E6D2
:10101400040603E700000000003C00230050002DFC
:101024000073003800870040009A004500BA004C65
:1010340000DE005300F60063012000660144006CEA
:1010440001650071018F007901AF008001B3008256
:1010540001D2009001DD009501F3009C020B00A475
:10106400021F00AD022A00B1024200B8024700BDCF
:10107400025600C4026800D9027F010102990148A6
:1010840002B4018102D301E502DC01F902E5022583
:1010940002F0024802FD027E030E02D10322035134
:1010A400033B039B035D03A8038F03BB03E803E334
:1010B40003F203E6040603E700000000003C002DF1
:1010C400005000320073003E00870048009A004D33
:1010D40000BA005400DE005C00F6007001200073CA
:1010E4000144007B01650082018F008D01AF0096F1
:1010F40001B3009B01D200AE01DD00B201F300BFD9
:10110400020B00CC021F00D9022A00E2024200ECCA
:10111400024700F1025600F802680111027F01350E
:101124000299015D02B4018102D301E502DC01F9F7
:1011340002E5022502F0024802FD027E030E02D1FE
:1011440003220351033B039B035D03A8038F03BBEB
:1011540003E803E303F203E6040603E700000000E8
:10116400003C00320050003A007300440087004FF6
:10117400009A005400BA005D00DE006500F60075B8
:10118400012000760144008001650086018F008FF4
:1011940001AF009701B3009901D200A601DD00ACB4
:1011A40001F300B4020B00BF021F00CD022A00D3DA
:1011B400024200DE024700E3025600E9026800FF33
:1011C400027F011E0299014D02B4018102D301E59F
:1011D40002DC01F902E5022502F0024802FD027E6A
:1011E400030E02D103220351033B039B035D03A8B7
:1011F400038F03BB03E803E303F203E6040603E7F8
:1012040000000000000A000A00140014001E001E62
:101214000028002800320032003C003C0046004612
:1012240000500050005A005A00640064006E006EC2
:101234000078007800820082008C008C0096009672
:1012440000A000A000AA00AA00B400B400BE00BE22
:1012540000C800C800D200D200DC00DC00E600E6D2
:1012640000F000F000FA00FA01040104010E010E7E
:101274000118011801220122012C012C0190019076
:1012840001F401F40258025802BC02BC03200320FA
:101294000384038403E803E803F203F20406040668
:052E87004200B3000051
:1012A4009000E9120F43000000009000B7E0FEA395
:1012B400E0FFC39000DBE09FFF9000DAE09EFEE4D5
:1012C400FCFD9000FB120F379000F9E4F0A37414B6
:1012D400F09000F9E0FEA3E0FFEE3395E0FDFCA3FF
:1012E400E0F8A3E0F9A3E0FAA3E0FBC3120F214066
:1012F4000302157A9000F9E0FEA3E0FFC3E49FFF28
:10130400E49EFE3395E0FDFCA3E0F8A3A3A3E0D3A1
:10131400120F21500302157A7D109000D7E0FFEDE3
:101324006480F8EF648098404BE49000FFF0ED1483
:10133400FF9000FFE0FEC3EF6480F8EE64809850F5
:1013440039EEFF3395E0FEEF25E0FFEE33FE74B98E
:101354002FF58274003EF583E0FAA3E0FB74B72F07
:10136400F58274003EF583EAF0A3EBF09000FFE011
:1013740004F080BA9000D7E004F09000DAE0FCA317
:10138400E0FD9000D7E0FF3395E0FEEF25E0FFEEAF
:1013940033FE74B52FF58274003EF583ECF0A3EDB3
:1013A400F09000B7E0FAA3E0FBFFAE02E4FCFD908E
:1013B40000F1120F37AF03AE02E4FCFD9000F5120A
:1013C4000F37E49000FFF09000D7E0FF9000FFE0BB
:1013D400FEC3EF6480F8EE64809840030214EA9040
:1013E40000E9E0F8A3E0F9A3E0FAA3E0FB9000FF32
:1013F400E0FF3395E0FEEF25E0FFEE33FE74B72FF8
:10140400F58274003EF583E0FEA3E0FFE4FCFDEB0F
:101414002FFFEA3EFEED39FDEC38FC9000E9120F97
:10142400379000FFE0FF3395E0FEEF25E0FFEE3359
:10143400FE74B72FF58274003EF583E0FEA3E0FF4F
:10144400E4FCFD9000F1E0F8A3E0F9A3E0FAA3E0E6
:10145400FBC3120F2150289000FFE0FF3395E0FEFC
:10146400EF25E0FFEE33FE74B72FF58274003EF5EE
:1014740083E0FEA3E0FFE4FCFD9000F1120F37903F
:1014840000FFE0FF3395E0FEEF25E0FFEE33FE744E
:10149400B72FF58274003EF583E0FEA3E0FFE4FC81
:1014A400FD9000F5E0F8A3E0F9A3E0FAA3E0FBD394
:1014B400120F2140289000FFE0FF3395E0FEEF2556
:1014C400E0FFEE33FE74B72FF58274003EF583E03F
:1014D400FEA3E0FFE4FCFD9000F5120F379000FF3F
:1014E400E004F00213CB9000D7E0FFC3648094853E
:1014F4005019AB07EB3395E0FAF9F89000E9E0FCFA
:10150400A3E0FDA3E0FEA3E0FF80629000F1E0F819
:10151400A3E0F9A3E0FAA3E0FB9000E9E0FCA3E078
:10152400FDA3E0FEA3E0C39BFFEE9AFEED99FDEC64
:1015340098FC9000F5E0F8A3E0F9A3E0FAA3E0FB3F
:10154400C3EF9BFFEE9AFEED99FDEC98FCC006C03C
:10155400079000D7E0FF3395E0FEEF24FEFFEE3462
:10156400FFAB07FA3395E0F9F8D007D00612320E34
:101574009000ED020F379000DAE0FFA3E09000B78F
:0B158400CFF0A3EFF09000D77401F04F
:01158F002239
:050100009000DEEFF0AD
:10010500AE04AF059000D8EEF0A3EFF0A3EEF0A398
:10011500EFF01212A49000B3E0FEA3E0FFC390003D
:10012500DBE09FFF9000DAE09EFEC3EF9414EE94AF
:1001350000503EEF94ECEE94FF40369000B3E0FEA5
:10014500A3E025E0FFEE33FEE02FFF9000B3E03E95
:10015500FE9000DAE0FCA3E0FD2FFFEC3ECF2DCFB3
:100165003CFE7C007D05120D6B9000DAEEF0A3EFEE
:10017500F09000DAE0FFA3E09000D8CFF0A3EFF015
:100185009000DEE06003020375A3F0A304F0900085
:10019500E0E060489000DFE0FF3395E0FEEF780295
:1001A500C333CE33CED8F92474F582740F3EF5836C
:1001B500E493FE740193FFD39000D9E09F9000D89B
:1001C500E09E5007E49000E0F080119000DFE0042D
:1001D500F0E0C3648094A840B5E4A3F09000DFE0AC
:1001E500FFD36480948040047E0180027E00C3EFCB
:1001F500648094B250047F0180027F00EF5E70033B
:100205000203449000DFE0F9FF3395E0FEEF78024A
:10021500C333CE33CED8F92472F582740F3EF583FD
:10022500E493FA740193FBFFAE02EE3395E0FDFC17
:100235009000E1120F37E9FF3395E0FEEF7802C336
:1002450033CE33CED8F92470F582740F3EF583E4AE
:1002550093FE740193FFC39000D9E09FFF9000D8EF
:10026500E09EFEE4FCFD9000E5120F37E9FF3395B3
:10027500E0FEEF7802C333CE33CED8F92476F5828B
:10028500740F3EF583C37401939BFFE4939AFE3389
:1002950095E0FDFC9000E5E0F8A3E0F9A3E0FAA302
:1002A500E0FB120DF69000E5120F379000E5E0FC3B
:1002B500A3E0FDA3E0FEA3E0FFC004C005C006C0A7
:1002C500079000DFE0FF3395E0FEEF7802C333CE01
:1002D50033CED8F9FF2470F582740F3EF583E4938D
:1002E500FC740193FD74742FF582740F3EF583C37E
:1002F5007401939DFFE4939CAB07FA3395E0F9F8FD
:10030500D007D006D005D004120E819000E5120F5B
:10031500379000E1E0FCA3E0FDA3E0FEA3E0FFA32E
:10032500E0F8A3E0F9A3E0FAA3E0FBEF2BFFEE3A38
:10033500FEED39FDEC38FC9000E1120F37800A9094
:1003450000E1120F43000000009000E1A3A3E0FECE
:10035500A3E0FF9000B5EEF0A3EFF0C394E8EE94B0
:1003650003400A9000B57403F0A374E8F00209484D
:100375009000DEE064016003020567A3F0A304F0CA
:100385009000E0E060489000DFE0FF3395E0FEEF8D
:100395007802C333CE33CED8F92418F58274103ED3
:1003A500F583E493FE740193FFD39000D9E09F9009
:1003B50000D8E09E5007E49000E0F080119000DF47
:1003C500E004F0E0C3648094A840B5E4A3F0900095
:1003D500DFE0FFD36480948040047E0180027E00CC
:1003E500C3EF648094B250047F0180027F00EF5E0A
:1003F50070030205369000DFE0F9FF3395E0FEEF6C
:100405007802C333CE33CED8F92416F58274103E64
:10041500F583E493FA740193FBFFAE02EE3395E0A6
:10042500FDFC9000E1120F37E9FF3395E0FEEF7810
:1004350002C333CE33CED8F92414F58274103EF5B9
:1004450083E493FE740193FFC39000D9E09FFF906E
:1004550000D8E09EFEE4FCFD9000E5120F37E9FFB1
:100465003395E0FEEF7802C333CE33CED8F9241AA4
:10047500F58274103EF583C37401939BFFE4939A50
:10048500FE3395E0FDFC9000E5E0F8A3E0F9A3E07C
:10049500FAA3E0FB120DF69000E5120F379000E588
:1004A500E0FCA3E0FDA3E0FEA3E0FFC004C005C09F
:1004B50006C0079000DFE0FF3395E0FEEF7802C34A
:1004C50033CE33CED8F9FF2414F58274103EF5836C
:1004D500E493FC740193FD74182FF58274103EF5B6
:1004E50083C37401939DFFE4939CAB07FA3395E0B6
:1004F500F9F8D007D006D005D004120E819000E59A
:10050500120F379000E1E0FCA3E0FDA3E0FEA3E0BD
:10051500FFA3E0F8A3E0F9A3E0FAA3E0FBEF2BFFCC
:10052500EE3AFEED39FDEC38FC9000E1120F378014
:100535000A9000E1120F43000000009000E1A3A320
:10054500E0FEA3E0FF9000B5EEF0A3EFF0C394E862
:10055500EE9403400A9000B57403F0A374E8F0022A
:1005650009489000DEE064026003020759A3F0A386
:1005750004F09000E0E060489000DFE0FF3395E094
:10058500FEEF7802C333CE33CED8F924BCF582749E
:10059500103EF583E493FE740193FFD39000D9E0F8
:1005A5009F9000D8E09E5007E49000E0F080119005
:1005B50000DFE004F0E0C3648094A840B5E4A3F054
:1005C5009000DFE0FFD36480948040047E018002C8
:1005D5007E00C3EF648094B250047F0180027F00E7
:1005E500EF5E70030207289000DFE0F9FF3395E026
:1005F500FEEF7802C333CE33CED8F924BAF5827430
:10060500103EF583E493FA740193FBFFAE02EE33DB
:1006150095E0FDFC9000E1120F37E9FF3395E0FE10
:10062500EF7802C333CE33CED8F924B8F5827410EF
:100635003EF583E493FE740193FFC39000D9E09FD8
:10064500FF9000D8E09EFEE4FCFD9000E5120F3718
:10065500E9FF3395E0FEEF7802C333CE33CED8F908
:1006650024BEF58274103EF583C37401939BFFE4A9
:10067500939AFE3395E0FDFC9000E5E0F8A3E0F9E0
:10068500A3E0FAA3E0FB120DF69000E5120F3790F8
:1006950000E5E0FCA3E0FDA3E0FEA3E0FFC004C08D
:1006A50005C006C0079000DFE0FF3395E0FEEF7858
:1006B50002C333CE33CED8F9FF24B8F58274103E89
:1006C500F583E493FC740193FD74BC2FF5827410DB
:1006D5003EF583C37401939DFFE4939CAB07FA3306
:1006E50095E0F9F8D007D006D005D004120E819018
:1006F50000E5120F379000E1E0FCA3E0FDA3E0FE6A
:10070500A3E0FFA3E0F8A3E0F9A3E0FAA3E0FBEF81
:100715002BFFEE3AFEED39FDEC38FC9000E1120FAF
:1007250037800A9000E1120F43000000009000E1BD
:10073500A3A3E0FEA3E0FF9000B5EEF0A3EFF0C3A6
:1007450094E8EE9403400A9000B57403F0A374E8AE
:10075500F00209489000DEE06403600302094DA33E
:10076500F0A304F09000E0E060489000DFE0FF3384
:1007750095E0FEEF7802C333CE33CED8F92460F589
:100785008274113EF583E493FE740193FFD39000C8
:10079500D9E09F9000D8E09E5007E49000E0F080FB
:1007A500119000DFE004F0E0C3648094A840B5E454
:1007B500A3F09000DFE0FFD36480948040047E01C5
:1007C50080027E00C3EF648094B250047F018002F2
:1007D5007F00EF5E700302091A9000DFE0F9FF3336
:1007E50095E0FEEF7802C333CE33CED8F9245EF51B
:1007F5008274113EF583E493FA740193FBFFAE0214
:10080500EE3395E0FDFC9000E1120F37E9FF3395DB
:10081500E0FEEF7802C333CE33CED8F9245CF582FF
:1008250074113EF583E493FE740193FFC39000D9E0
:10083500E09FFF9000D8E09EFEE4FCFD9000E512ED
:100845000F37E9FF3395E0FEEF7802C333CE33CEA1
:10085500D8F92462F58274113EF583C37401939B24
:10086500FFE4939AFE3395E0FDFC9000E5E0F8A3E4
:10087500E0F9A3E0FAA3E0FB120DF69000E5120FF4
:10088500379000E5E0FCA3E0FDA3E0FEA3E0FFC098
:1008950004C005C006C0079000DFE0FF3395E0FE09
:1008A500EF7802C333CE33CED8F9FF245CF58274DA
:1008B500113EF583E493FC740193FD74602FF5827A
:1008C50074113EF583C37401939DFFE4939CAB07BC
:1008D500FA3395E0F9F8D007D006D005D004120E0A
:1008E500819000E5120F379000E1E0FCA3E0FDA345
:1008F500E0FEA3E0FFA3E0F8A3E0F9A3E0FAA3E09C
:10090500FBEF2BFFEE3AFEED39FDEC38FC9000E1F4
:10091500120F37800A9000E1120F4300000000908B
:1009250000E1A3A3E0FEA3E0FF9000B5EEF0A3EF86
:10093500F0C394E8EE9403400A9000B57403F0A365
:1009450074E8F09000B580039000D8E0FEA3E0FFC6
:01095500227F
:102E8C00607A00000D8A0D6C0D4E0D2F0D0F0CEE9F
:102E9C000CCC0CAA0C860C620C3E0C170BF10BC95B
:102EAC000BA10B790B4F0B250AFB0AD00AA50A794B
:102EBC000A4C0A2009F309C60999096B093D091046
:102ECC0008E208B408870859082C07FF07D207A5A1
:102EDC000779074D072206F706CC06A2067907D715
:102EEC0007B005FF05D805B1058B05660542051E23
:0E2EFC0004FA04D804B604950475045504368F
:10305D00E4FDED25E02400F582E43400F583E0FA8B
:10306D00A3E0C39FEA9E40050DEDB43DE5ED700C68
:10307D009000DE120F43C1200000802EEDC3943D61
:10308D00400C9000DE120F4342480000801CED24DE
:10309D00F6FDE434FFFCE4120C72E4FBFA792078BF
:1030AD0041120A4E9000DE120F379000DEE0FCA3B5
:1030BD00E0FDA3E0FEA3E0FF1230F19000DEE0FCA6
:1030CD00A3E0FDA3E0FEA3E0FF1222BB9000DE1201
:1030DD000F379000DEE0FCA3E0FDA3E0FEA3E0FFD0
:0330ED00120CAB17
:0130F00022BD
:10285800BE00BEC4C5C6C7C4C5C6C7BCBFBFBD6D64
:102868006F7475767775766E6F7475776E74757626
:10287800776D6E75766D6E7476776D6E6F7476772C
:102888007475766D6E6F747576776D6E7475767710
:102898007D7F8485868785867E7F8485877E8485FF
:1028A80086877D7E85867D7E8486877D7E7F8486FD
:1028B800878485867D7E7F848586877D7E848586E0
:1028C800878C8D8FB4B5B6B78CB5B68C8E8FB4B5F2
:1028D800B78C8EB4B5B6B78C8D8EB5B68C8D8EB4DC
:1028E800B6B78C8D8E8FB4B6B78CB4B5B68C8D8ECA
:1028F8008FB4B5B6B78C8D8EB4B5B6B70405070CD2
:102908000D0E0F0D0E06070C0D0F060C0D0E0F0504
:10291800060D0E05060C0E0F0506070C0E0F0C0D06
:102928000E0506070C0D0E0F05060C0D0E0F1517DC
:102938001C1D1E1F1D1E16171C1D1F161C1D1E1FCD
:1029480015161D1E15161C1E1F1516171C1E1F1CDE
:102958001D1E1516171C1D1E1F15161C1D1E1F34A7
:102968003537646566673465663436376465673459
:102978003664656667343536656634353664666749
:10298800343536376466673464656634353637649B
:0A29980065666734353664656667CE
:042F0A004101200061
:103322007593B0759CFC75940475A33F75B3FF75D6
:0C3332008F047F19900121E4F0A3DFFC60
:01333E00226C
:1032E6007593F0759C1C75940475A33F75B3FF75B3
:0E32F6008F04E4FF7E19900121E4F0A3DEFCBA
:0133040022A6
:052BCF009000DEEFF0B4
:102BD4009000E0E4F0A3F0A3F09000DFF09000DFB9
:102BE400E0FFC364809481504DEF3395E0FE745A46
:102BF4002FF58274283EF583E4937C00FD7E0078F3
:102C040003CEA2E713CE13D8F82421F58274013E33
:102C1400F583C083C082E0FFED5407FE7401A8066B
:102C2400088002C333D8FCF45FD082D083F09000D4
:102C3400DFE004F080A7E49000DFF09000DEE070B5
:102C4400699000E074FFF0A37428F0A37458F09026
:102C540000DF7401F080539000DFE0FFC3648094D0
:102C640080404FA3E0FBA3E0FAA3E0F9EF3395E043
:102C74008F82F583120D2C7C00FD7E007803CEA29A
:102C8400E713CE13D8F82421F58274013EF583C0EE
:102C940083C082E0FFED5407FE7401A80608800299
:102CA400C333D8FC4FD082D083F09000DFE014F01F
:082CB40080A59001207401F0DD
:012CBC0022F5
:0529A2009000DEEFF0E3
:1029A7009000E0E4F0A3F0A3F09000DFF09000DFE8
:1029B700E0FFC364809484504DEF3395E0FE745F6D
:1029C7002FF58274283EF583E4937C00FD7E007822
:1029D70003CEA2E713CE13D8F82421F58274013E63
:1029E700F583C083C082E0FFED5407FE7401A8069B
:1029F700088002C333D8FCF45FD082D083F0900004
:102A0700DFE004F080A79000DEE0FF700F9000E0A9
:102A170074FFF0A37428F0A3745B8037EFB4010F41
:102A27009000E074FFF0A37428F0A3745C8024EF97
:102A3700B4020F9000E074FFF0A37428F0A3745D54
:102A47008011EFB403149000E074FFF0A37428F032
:102A5700A3745EF09000DF7401F080539000DFE014
:102A6700FFC364809480404FA3E0FBA3E0FAA3E098
:102A7700F9EF3395E08F82F583120D2C7C00FD7EF4
:102A8700007803CEA2E713CE13D8F82421F5827479
:102A9700013EF583C083C082E0FFED5407FE740159
:102AA700A806088002C333D8FC4FD082D083F090A9
:0D2AB70000DFE014F080A59001207401F014
:012AC40022EF
:102CBD009000DFE4F0A3F0A3F0EF70609000DEF081
:102CCD009000DEE0FFC3648094814003022D9AEFF3
:102CDD003395E0FE74632FF58274283EF583E493FB
:102CED007C00FD7E007803CEA2E713CE13D8F82426
:102CFD0021F58274013EF583C083C082E0FFED545F
:102D0D0007FE7401A806088002C333D8FCF45FD017
:102D1D0082D083F09000DEE004F080A49000DF7498
:102D2D00FFF0A37428F0A37463F09000DE7401F03B
:102D3D0080569000DEE0FFC364809480404FA3E096
:102D4D00FBA3E0FAA3E0F9EF3395E08F82F5831250
:102D5D000D2C7C00FD7E007803CEA2E713CE13D898
:102D6D00F82421F58274013EF583C083C082E0FF13
:102D7D00ED5407FE7401A806088002C333D8FC4F3A
:102D8D00D082D083F09000DEE014F080A590012079
:032D9D007401F0CE
:012DA0002210
:052AC5009000E2EFF0BB
:102ACA009000E4E4F0A3F0A3F09000E3F09000E3B8
:102ADA00E0FFC364809482504DEF3395E0FE746545
:102AEA002FF58274283EF583E4937C00FD7E0078FE
:102AFA0003CEA2E713CE13D8F82421F58274013E3F
:102B0A00F583C083C082E0FFED5407FE7401A80676
:102B1A00088002C333D8FCF45FD082D083F09000DF
:102B2A00E3E004F080A7E49000E3F09000E2E0FF25
:102B3A00B401169000E474FFF0A37428F0A374643F
:102B4A00F09000E37401F0806DEFB402149000E499
:102B5A0074FFF0A37428F0A37465F09000E3740284
:102B6A00F080539000E3E0FFC364809480404FA359
:102B7A00E0FBA3E0FAA3E0F9EF3395E08F82F58357
:102B8A00120D2C7C00FD7E007803CEA2E713CE1333
:102B9A00D8F82421F58274013EF583C083C082E00F
:102BAA00FFED5407FE7401A806088002C333D8FC5F
:102BBA004FD082D083F09000E3E014F080A590011A
:042BCA00207401F082
:012BCE0022E4
:101AF6009000E9E4F0A3F0A3F0C3EF94E7EE9403BB
:101B06009000E740097403F0A374E7F08005EEF057
:101B1600A3EFF09000E7E0FEA3E0FF7C007D6412F7
:101B26000DC09000E7EEF0A3EFF0E49000E6F0EFD2
:101B36004E7003021C909000E7E0FEA3E0FF6401F4
:101B46004E7015A374FFF0A37428F0A3746DF09083
:101B560000E67402F0021C90EF64024E700F9000D3
:101B6600E974FFF0A37428F0A3746F8045EF640353
:101B76004E700F9000E974FFF0A37428F0A37474FC
:101B86008030EF64044E70179000E974FFF0A37480
:101B960028F0A37479F09000E67404F0021C90EF2C
:101BA60064054E70179000E974FFF0A37428F0A343
:101BB600747DF09000E67405F0021C90EF64064E0A
:101BC600700F9000E974FFF0A37428F0A37482806C
:101BD6004DEF64074E70179000E974FFF0A3742868
:101BE600F0A37488F09000E67403F0021C90EF6492
:101BF600084E70179000E974FFF0A37428F0A374E0
:101C06008BF09000E67407F0021C90EF64094E70AA
:101C1600799000E974FFF0A37428F0A37492F09011
:101C260000E67406F080639000E6E0FFC3648094EB
:101C360080405F9000E9E0FBA3E0FAA3E0F9EF3310
:101C460095E08F82F583120D2CFF9000E7E4F0A358
:101C5600EFF09000E7E0FCA3E0FDAE047803CEA22F
:101C6600E713CE13D8F82421F58274013EF583C01C
:101C760083C082E0FFED5407FE7401A806088002C7
:101C8600C333D8FC4FD082D083F09000E6E014F046
:021C9600809537
:011C98002229
:081C99009000E6EEF0A3EFF06D
:101CA1009000E9E4F0A3F0A3F09000E6E0FEA3E0E9
:101CB100FF7C007D64120D6B9000E6ECF0FEA3ED5D
:101CC100F0FF7C007D0A120D6BAD07AC06ED4C7088
:101CD100109000E974FFF0A37428F0A37498021D1A
:101CE100C4ED64014C70179000E974FFF0A37428EF
:101CF100F0A3749EF09000E87402F0021E20ED64DF
:101D0100024C700F9000E974FFF0A37428F0A374E3
:101D1100A08045ED64034C700F9000E974FFF0A3BF
:101D21007428F0A374A58030ED64044C7017900002
:101D3100E974FFF0A37428F0A374AAF09000E8748A
:101D410004F0021E20ED64054C70179000E974FF49
:101D5100F0A37428F0A374AEF09000E87405F002CB
:101D61001E20ED64064C700F9000E974FFF0A3741F
:101D710028F0A374B3804CED64074C70179000E910
:101D810074FFF0A37428F0A374B9F09000E8740311
:101D9100F0021E20ED64084C70169000E974FFF00B
:101DA100A37428F0A374BCF09000E87407F0806F6E
:101DB100ED64094C70699000E974FFF0A37428F098
:101DC100A374C3F09000E87406F080539000E8E03B
:101DD100FFC364809480404FA3E0FBA3E0FAA3E03B
:101DE100F9EF3395E08F82F583120D2C7C00FD7E97
:101DF100007803CEA2E713CE13D8F82421F582741C
:101E0100013EF583C083C082E0FFED5407FE7401FB
:101E1100A806088002C333D8FC4FD082D083F0904B
:071E210000E8E014F080A5C9
:011E28002297
:102437009000E7E4F0A3F0A3F0AD07AC06ED4C7015
:10244700109000E774FFF0A37428F0A374C9022565
:102457003AED64014C70179000E774FFF0A37428FD
:10246700F0A374D0F09000E67403F0022596ED64B3
:10247700024C700F9000E774FFF0A37428F0A37468
:10248700D38045ED64034C700F9000E774FFF0A311
:102497007428F0A374D98030ED64044C7017900051
:1024A700E774FFF0A37428F0A374DFF09000E674DC
:1024B70005F0022596ED64054C70179000E774FF50
:1024C700F0A37428F0A374E4F09000E67406F00219
:1024D7002596ED64064C700F9000E774FFF0A37427
:1024E70028F0A374EA804CED64074C70179000E75E
:1024F70074FFF0A37428F0A374F1F09000E674045D
:10250700F0022596ED64084C70169000E774FFF012
:10251700A37428F0A374F5F09000E67408F0806FB8
:10252700ED64094C70699000E774FFF0A37428F01C
:10253700A374FDF09000E67407F080539000E6E086
:10254700FFC364809480404FA3E0FBA3E0FAA3E0BD
:10255700F9EF3395E08F82F583120D2C7C00FD7E19
:10256700007803CEA2E713CE13D8F82421F582749E
:10257700013EF583C083C082E0FFED5407FE74017E
:10258700A806088002C333D8FC4FD082D083F090CE
:0725970000E6E014F080A54E
:01259E00221A
:08194E009000DEEEF0A3EFF0C3
:101956009000E3E4F0A3F0A3F09000E0F09000E044
:10196600E0FFC364809487505BEF3395E0FE748B91
:101976002FF58274283EF583E493FF9000E1E4F0AE
:10198600A3EFF09000E1E0FCA3E0FDAE047803CE07
:10199600A2E713CE13D8F82421F58274013EF5830D
:1019A600C083C082E0FFED5407FE7401A8060880DC
:1019B60002C333D8FCF45FD082D083F09000E0E01D
:1019C60004F08099E49000E0F09000E0E0FFC3644A
:1019D600809487505BEF3395E0FE74BC2FF58274DC
:1019E600283EF583E493FF9000E1E4F0A3EFF09046
:1019F60000E1E0FCA3E0FDAE047803CEA2E713CE3F
:101A060013D8F82421F58274013EF583C083C08281
:101A1600E0FFED5407FE7401A806088002C333D820
:101A2600FCF45FD082D083F09000E0E004F080996F
:101A3600E49000E0F09000E0E0FFC36480948850FA
:101A46005BEF3395E0FE74F52FF58274283EF5833F
:101A5600E493FF9000E1E4F0A3EFF09000E1E0FCF6
:101A6600A3E0FDAE047803CEA2E713CE13D8F82484
:101A760021F58274013EF583C083C082E0FFED54F8
:101A860007FE7401A806088002C333D8FCF45FD0B1
:101A960082D083F09000E0E004F080999000DEE0D0
:101AA600FEA3E0FF121AF6C39000DFE094649000F4
:101AB600DEE09400400CA3E0249CF09000DEE034CD
:101AC600FFF09000DEE0FEA3E0FF121C999000DE1E
:101AD600E0FEA3E0FF7C007D0A120D6B9000DEECB9
:0F1AE600F0FEA3EDF0FF1224379001207401F001
:011AF50022CE
:102DA100C3EF94E8EE94034060E49000E6F09000F5
:102DB100E6E0FFC3648094814003022E68EF3395FF
:102DC100E0FE74042FF58274293EF583E4937C00C0
:102DD100FD7E007803CEA2E713CE13D8F82421F5A7
:102DE1008274013EF583C083C082E0FFED5407FE8B
:102DF1007401A806088002C333D8FC4FD082D08367
:102E0100F09000E6E004F080A5E49000E6F0900088
:102E1100E6E0FFC364809481504DEF3395E0FE748A
:102E2100042FF58274293EF583E4937C00FD7E0036
:102E31007803CEA2E713CE13D8F82421F5827401CA
:102E41003EF583C083C082E0FFED5407FE7401A804
:102E510006088002C333D8FCF45FD082D083F0909F
:072E610000E6E004F080A789
:012E68002247
:081773009000E6EEF0A3EFF098
:10177B009000EBE4F0A3F0A3F0C3EF94E8EE940336
:10178B0040169000E7E02418FE9000E6E034FC9051
:10179B0000E9F0A3CEF0800F9000E6E0FFA3E0900D
:1017AB0000E9CFF0A3EFF09000E9E0FEA3E0FF7CAF
:1017BB00007D64120DC09000E9EEF0A3EFF0E49011
:1017CB0000E8F0EF4E701FC39000E7E094E8900044
:1017DB00E6E0940340109000EB74FFF0A37429F043
:1017EB00A374050218D99000E9E0FEA3E0FF6401A1
:1017FB004E7015A374FFF0A37429F0A3740BF09033
:10180B0000E87402F0021945EF64024E700F90006D
:10181B00EB74FFF0A37429F0A3740D8045EF640300
:10182B004E700F9000EB74FFF0A37429F0A37412A9
:10183B008030EF64044E70179000EB74FFF0A374CC
:10184B0029F0A37417F09000E87404F0021945EF27
:10185B0064054E70179000EB74FFF0A37429F0A38E
:10186B00741BF09000E87405F0021945EF64064E06
:10187B00700F9000EB74FFF0A37429F0A374208019
:10188B004DEF64074E70179000EB74FFF0A37429B3
:10189B00F0A37426F09000E87403F0021945EF648E
:1018AB00084E70179000EB74FFF0A37429F0A3742B
:1018BB0029F09000E87407F0021945EF64094E70A7
:1018CB00799000EB74FFF0A37429F0A37430F090BF
:1018DB0000E87406F080639000E8E0FFC364809436
:1018EB0080405F9000EBE0FBA3E0FAA3E0F9EF335D
:1018FB0095E08F82F583120D2CFF9000E9E4F0A3A5
:10190B00EFF09000E9E0FCA3E0FDAE047803CEA27B
:10191B00E713CE13D8F82421F58274013EF583C06A
:10192B0083C082E0FFED5407FE7401A80608800215
:10193B00C333D8FC4FD082D083F09000E8E014F092
:02194B00809585
:01194D002277
:081E29009000E6EEF0A3EFF0DB
:101E31009000E9E4F0A3F0A3F09000E6E0FEA3E057
:101E4100FF7C007D64120D6B9000E6ECF0FEA3EDCB
:101E5100F0FF7C007D0A120D6BAD07AC06ED4C70F6
:101E6100109000E974FFF0A37429F0A37436021FE7
:101E710054ED64014C70179000E974FFF0A37429CC
:101E8100F0A3743CF09000E87402F0021FB0ED641E
:101E9100024C700F9000E974FFF0A37429F0A37451
:101EA1003E8045ED64034C700F9000E974FFF0A390
:101EB1007429F0A374438030ED64044C70179000D2
:101EC100E974FFF0A37429F0A37448F09000E8745A
:101ED10004F0021FB0ED64054C70179000E974FF27
:101EE100F0A37429F0A3744CF09000E87405F0029B
:101EF1001FB0ED64064C700F9000E974FFF0A374FD
:101F010029F0A37451804CED64074C70179000E9DF
:101F110074FFF0A37429F0A37457F09000E87403E0
:101F2100F0021FB0ED64084C70169000E974FFF0E8
:101F3100A37429F0A3745AF09000E87407F0806F3D
:101F4100ED64094C70699000E974FFF0A37429F005
:101F5100A37461F09000E87406F080539000E8E00B
:101F6100FFC364809480404FA3E0FBA3E0FAA3E0A9
:101F7100F9EF3395E08F82F583120D2C7C00FD7E05
:101F8100007803CEA2E713CE13D8F82421F582748A
:101F9100013EF583C083C082E0FFED5407FE74016A
:101FA100A806088002C333D8FC4FD082D083F090BA
:071FB10000E8E014F080A538
:011FB8002206
:10259F009000E7E4F0A3F0A3F0AD07AC06ED4C70AC
:1025AF00109000E774FFF0A37429F0A3746702265C
:1025BF00A2ED64014C70179000E774FFF0A374292B
:1025CF00F0A3746EF09000E67403F00226FEED6443
:1025DF00024C700F9000E774FFF0A37429F0A374FE
:1025EF00718045ED64034C700F9000E774FFF0A30A
:1025FF007429F0A374778030ED64044C7017900049
:10260F00E774FFF0A37429F0A3747DF09000E674D3
:10261F0005F00226FEED64054C70179000E774FF7D
:10262F00F0A37429F0A37482F09000E67406F00210
:10263F0026FEED64064C700F9000E774FFF0A37454
:10264F0029F0A37488804CED64074C70179000E755
:10265F0074FFF0A37429F0A3748FF09000E6740454
:10266F00F00226FEED64084C70169000E774FFF040
:10267F00A37429F0A37493F09000E67408F0806FB0
:10268F00ED64094C70699000E774FFF0A37429F0B2
:10269F00A3749BF09000E67407F080539000E6E07F
:1026AF00FFC364809480404FA3E0FBA3E0FAA3E054
:1026BF00F9EF3395E08F82F583120D2C7C00FD7EB0
:1026CF00007803CEA2E713CE13D8F82421F5827435
:1026DF00013EF583C083C082E0FFED5407FE740115
:1026EF00A806088002C333D8FC4FD082D083F09065
:0726FF0000E6E014F080A5E5
:0127060022B0
:081590009000DEEEF0A3EFF085
:101598009000E3E4F0A3F0A3F0C3EE6480948050DD
:1015A8001E9000DEE0FEA3E0FFC3E49FFFE49E90F0
:1015B80000DEF0A3EFF0900123E04410F0800790E4
:1015C8000123E054EFF09000DEE0FEA3E0FF122DCF
:1015D800A1E49000E0F09000E0E0FFC3648094870D
:1015E800505BEF3395E0FE74292FF58274293EF5A0
:1015F80083E493FF9000E1E4F0A3EFF09000E1E0D2
:10160800FCA3E0FDAE047803CEA2E713CE13D8F80E
:101618002421F58274013EF583C083C082E0FFED8A
:101628005407FE7401A806088002C333D8FCF45F8F
:10163800D082D083F09000E0E004F08099E490003C
:10164800E0F09000E0E0FFC364809487505BEF33E4
:1016580095E0FE745A2FF58274293EF583E493FFD2
:101668009000E1E4F0A3EFF09000E1E0FCA3E0FDDE
:10167800AE047803CEA2E713CE13D8F82421F5825E
:1016880074013EF583C083C082E0FFED5407FE7409
:1016980001A806088002C333D8FCF45FD082D08347
:1016A800F09000E0E004F08099E49000E0F0900011
:1016B800E0E0FFC364809488505BEF3395E0FE74EC
:1016C800932FF58274293EF583E493FF9000E1E4BB
:1016D800F0A3EFF09000E1E0FCA3E0FDAE04780396
:1016E800CEA2E713CE13D8F82421F58274013EF573
:1016F80083C083C082E0FFED5407FE7401A806088A
:101708008002C333D8FCF45FD082D083F09000E02D
:10171800E004F080999000DEE0FEA3E0FF1217736A
:10172800C39000DFE094E89000DEE064809483409A
:101738000CA3E02418F09000DEE034FCF09000DE0A
:10174800E0FEA3E0FF121E299000DEE0FEA3E0FF0A
:101758007C007D0A120DC09000DEECF0FEA3EDF0D7
:0A176800FF12259F9001207401F08C
:011772002254
:1032BF00900120E06020E4F0FF74212FF582E434C8
:1032CF0001F583E0FE74002FF582E43407F583EEF9
:0632DF00F00FEFB419E34B
:0132E50022C6
:102F0E0044008F0000000044007A3F47AE14410099
:022F1E007E0033
:062F21009000E6120F37DC
:102F2700E4FFFEFDFC90008FE0F8A3E0F9A3E0FAD0
:102F3700A3E0FB120BF470149000E6E0FCA3E0FDA5
:102F4700A3E0FEA3E0FF90008F120F3790007AE016
:102F5700F8A3E0F9A3E0FAA3E0FBE4FFFE7D807CA1
:102F67003F12095990008FE0F8A3E0F9A3E0FAA314
:102F7700E0FB120A4EC004C005C006C0079000E679
:102F8700E0FCA3E0FDA3E0FEA3E0FF90007AE0F8F9
:102F9700A3E0F9A3E0FAA3E0FB120A4ED003D002A4
:102FA700D001D00012095D90008F120F3790008F6B
:0B2FB700E0FCA3E0FDA3E0FEA3E0FFB0
:012FC20022EC
:0630F1009000E2120F370F
:1030F70090007EE0706A900097120F433F800000B7
:1031070090009B120F43000000009000A3120F4392
:103117003F00000090009F120F433F800000900087
:10312700AB120F433E8000009000E2E0FCA3E0FDFD
:10313700A3E0FEA3E0FF900087120F3790007F12F5
:103147000F433F00000090007E7401F09000E2E022
:10315700FCA3E0FDA3E0FEA3E0FF90008F120F3772
:013167002245
:1022BB009000E2120F379000E2E0FCA3E0FDA3E0F8
:1022CB00FEA3E0FF122F219000E2120F3790008740
:1022DB00E0FCA3E0FDA3E0FEA3E0FF900097E0F895
:1022EB00A3E0F9A3E0FAA3E0FB120A4E9000A3E0EF
:1022FB00F8A3E0F9A3E0FAA3E0FB12095D90008BD1
:10230B00120F379000A3E0FCA3E0FDA3E0FEA3E0D7
:10231B00FF90007FE0F8A3E0F9A3E0FAA3E0FB1243
:10232B00095D900083120F379000ABE0FCA3E0FD3A
:10233B00A3E0FEA3E0FF900083E0F8A3E0F9A3E0A5
:10234B00FAA3E0FB12095DA804A905AA06AB079046
:10235B000083E0FCA3E0FDA3E0FEA3E0FF120B571C
:10236B009000AF120F379000E2E0FCA3E0FDA3E07A
:10237B00FEA3E0FF9000A7120F3790008BE0FCA3A9
:10238B00E0FDA3E0FEA3E0FF90009FE0F8A3E0F9DF
:10239B00A3E0FAA3E0FB120A4EA804A905AA06AB18
:1023AB00079000A7E0FCA3E0FDA3E0FEA3E0FF1273
:1023BB0009599000AFE0F8A3E0F9A3E0FAA3E0FB22
:1023CB00120A4E90008BE0F8A3E0F9A3E0FAA3E029
:1023DB00FB12095D900093120F379000AFE0F8A34A
:1023EB00E0F9A3E0FAA3E0FBE4FFFE7D807C3F1263
:1023FB000959900083E0F8A3E0F9A3E0FAA3E0FB0E
:10240B00120A4E90007F120F37900093E0FCA3E06E
:10241B00FDA3E0FEA3E0FF900087120F379000931F
:0C242B00E0FCA3E0FDA3E0FEA3E0FF2224
:10095600020D17E86480F8E933E83360110460F0AB
:10096600ED33EC337009E8FCE9FDEAFEEBFF220407
:1009760060DED3EB9FEA9EE99DE8C2E78CF0C2F702
:1009860095F0400CE8CCF8E9CDF9EACEFAEBCFFBCE
:10099600120CE285D0F05804700320D5B3E8047039
:1009A600075002B2D5020D2192D5EC0460F7E4CCD3
:1009B600C0E0C398F8603B94186008400DD0E0FB97
:1009C600020CF9E4FBFAC9FC8028E830E406E4C925
:1009D600FBE4CAFCE830E305E4C9CACBFCE85407EB
:1009E6006010F8C3E913F9EA13FAEB13FBEC13FCF6
:1009F600D8F130F52FC3E49CFCEF9BFFEE9AFEED99
:100A060099FDD0E0FBEF4E4D4C701222DB03020D38
:100A16001EEC2CFCEF33FFEE33FEED33FDED30E73D
:100A2600EB020CF9EF2BFFEE3AFEED39FDD0E0FBC1
:100A360050130BBB0003020D21ED13FDEE13FEEF69
:080A460013FFEC13FC020CF994
:100A4E00EC4D6011E8497017ED33EC3304600DE4A2
:100A5E00FCFFFEFD22E933E8330470F8020D171295
:100A6E000CE258046009E4CC248150062850090297
:100A7E000D21284003020D1EC0E0EB4A7044B980E0
:100A8E0006D0E0FB020D0DEF4E701CBD8008EBFF93
:100A9E00EAFEE9FD80EBE98DF0A4FEE5F0020B37EE
:100AAE00E9CDF9EAFEEBFFEF89F0A4FCE5F0CE8983
:100ABE00F0A42EFFE435F0CD89F0A42DFEE435F040
:100ACE008067EF4E7005BD80D780C3EF8BF0A4AC6E
:100ADE00F0EE8BF0A42CFCE435F0F8EF8AF0A42CA9
:100AEE00E5F038FCE433CB8DF0A42CFCE5F03BF8BC
:100AFE00EE8AF0A42CFCE5F038F8E433CF89F0A4AC
:100B0E002CFCE5F038CF3400CE89F0A42FFFE5F0B1
:100B1E003EFEE433C98DF0A42EFEE5F039CD8AF009
:100B2E00A42FFFE5F03EFEE43DFD33D0E0FB500781
:100B3E000BBB000F020D21EC2CFCEF33FFEE33FE4E
:060B4E00ED33FD020CF97D
:100B5400020D21EC5D046005E859047003020D17D1
:100B6400120CE2580460F6EC4860F2EC7004FDFEEE
:100B7400FF22C860DB2481C85009C3986002500674
:100B8400020D1E9850CAF582E9294B4A7005AB82C2
:100B9400020D0D75F0007C1A7880C3EF9BEE9AED80
:100BA40099400DC3EF9BFFEE9AFEED99FDE842F0EC
:100BB400DC23ACF0D0E0FFD0E0FED0E0FDAB82203F
:100BC400E7101BEB60BAEC2CFCEF33FFEE33FEEDC9
:100BD40033FD020CF9E803F830E705C0F075F000C6
:100BE400EF2FFFEE33FEED33FD40B830E7C280AAAD
:100BF40074F8CC6480CCC86480C8F58204604FC3A8
:100C0400EB9FF5F0EA9E42F0E99D42F0E89C45F046
:100C1400603C501DE5825FFFE582D313CB5BCBF4D0
:100C24002B5582FB50280ABA002409B900200880F9
:100C34001DE5825BFBE582D313CF5FCFF4C3132F93
:100C44005582FF50090EBE00050DBD00010CC3EB1B
:100C54009FF5F0EA9E42F0E99D42F0E89C45F06081
:090C640007CC4820E701B3EC22A3
:100C6D0075F020800E75F010800575F0087D007E02
:100C7D00007F003392D530D503120F13EC334010A3
:100C8D00EF33FFEE33FEED33FDEC33FCD5F0ED220B
:0E0C9D00E5F0247EA2D513CC92E7CDCEFF2247
:100CAB00EDD2E7CD33EC3392D524814006E4FFFE41
:100CBB00FDFC22FCE4CFCECDCC24E0501174FF80A0
:100CCB00EDC3CC13CCCD13CDCE13CECF13CF04703D
:070CDB00F030D5DE020F131B
:100CE200E9D2E7C933E833F892D5EDD2E7CD33EC58
:070CF20033FC5002B2D522D1
:100CF900EC30E7100FBF000C0EBE00080DBD00045C
:100D09000BEB6014A2D5EB13FCED92E7FD2274FF07
:100D1900FCFDFEFF22E480F8A2D574FF13FC7D8060
:030D2900E480EF74
:102FDD0002213FE493A3F8E493A34003F68001F2AA
:102FED0008DFF48029E493A3F85407240CC8C333F5
:102FFD00C4540F4420C8834004F456800146F6DFC4
:10300D00E4800B0102040810204080902E69E47EBC
:10301D00019360BCA3FF543F30E509541FFEE493B8
:10302D00A360010ECF54C025E060A840B8E493A37F
:10303D00FAE493A3F8E493A3C8C582C8CAC583CAAA
:10304D00F0A3C8C582C8CAC583CADFE9DEE780BE62
:012F200000B0
:100D2C00BB010CE58229F582E5833AF583E022507C
:100D3C0006E92582F8E622BBFE06E92582F8E222C6
:0D0D4C00E58229F582E5833AF583E49322E0
:100D5900EF8DF0A4A8F0CF8CF0A428CE8DF0A42EAE
:020D6900FE2268
:100D6B00BC000BBE0029EF8DF084FFADF022E4CC6C
:100D7B00F875F008EF2FFFEE33FEEC33FCEE9DEC35
:100D8B00984005FCEE9DFE0FD5F0E9E4CEFD22ED7B
:100D9B00F8F5F0EE8420D21CFEADF075F008EF2FC5
:100DAB00FFED33FD4007985006D5F0F222C398FDB6
:050DBB000FD5F0EA2253
:100DC000C2D5EC30E709B2D5E4C39DFDE49CFCEE4E
:100DD00030E715B2D5E4C39FFFE49EFE120D6BC34E
:100DE000E49DFDE49CFC8003120D6B30D507C3E449
:060DF0009FFFE49EFE22BD
:100DF600E88FF0A4CC8BF0A42CFCE98EF0A42CFC9C
:100E06008AF0EDA42CFCEA8EF0A4CDA8F08BF0A419
:100E16002DCC3825F0FDE98FF0A42CCD35F0FCEB78
:100E26008EF0A4FEA9F0EB8FF0A4CFC5F02ECD393D
:0F0E3600FEE43CFCEAA42DCE35F0FDE43CFC22AA
:100E450075F008758200EF2FFFEE33FECD33CDCC64
:100E550033CCC58233C5829BED9AEC99E5829840E7
:100E65000CF582EE9BFEED9AFDEC99FC0FD5F0D6C4
:100E7500E4CEFBE4CDFAE4CCF9A88222B800C1B9EE
:100E85000059BA002DEC8BF084CFCECDFCE5F0CB2C
:100E9500F97818EF2FFFEE33FEED33FDEC33FCEB65
:100EA50033FB10D703994004EB99FB0FD8E5E4F920
:100EB500FA227818EF2FFFEE33FEED33FDEC33FC0D
:100EC500C933C910D7059BE99A4007EC9BFCE99A01
:100ED500F90FD8E0E4C9FAE4CCFB2275F010EF2F46
:100EE500FFEE33FEED33FDCC33CCC833C810D70746
:100EF5009BEC9AE899400AED9BFDEC9AFCE899F881
:0E0F05000FD5F0DAE4CDFBE4CCFAE4C8F92213
:10320E00C2D5E830E70FB2D5E4C39BFBE49AFAE4EB
:10321E0099F9E498F8EC30E717B2D5123244120E51
:10322E0081E4C39BFBE49AFAE499F9E498F88003ED
:10323E00120E8130D50DE4C39FFFE49EFEE49DFD8A
:04324E00E49CFC22DE
:0E0F1300C3E49FFFE49EFEE49DFDE49CFC22EF
:100F2100EB9FF5F0EA9E42F0E99D42F0EC6480C847
:060F310064809845F022E7
:0C0F3700ECF0A3EDF0A3EEF0A3EFF0222D
:100F4300A8828583F0D083D082120F5A120F5A12CF
:100F53000F5A120F5AE473E493A3C583C5F0C583F4
:100F6300C8C582C8F0A3C583C5F0C583C8C582C8F8
:010F7300225B
:00000001FF
